:0900000002271C0229E832222229
:07000B0002137228302900E6
:030013000229FFC0
:10002300022AB7CAD8CA796CFF0A3F2E3400B07CC3
:10003300B71228F174011228F174101228F16CDD43
:10004300E41229160BD0BED08478F50BF0BEF0086D
:0700530040D7DA79DAD82268
:03005B00022A1660
:10006300020006C28CD2A95389FCE589F58953891C
:10007300FB5395FE53937F758CE7758A96D28C223A
:03008300022A2D21
:03009300022684BE
:03009B0002282A0E
:1000A3000228600203B06E00807CB1337CB03368F9
:1000B3000D0468EF7CB5337CB43378037F102204DE
:1000C30068E17D5092F77D457D51BF2140067C80DC
:1000D3007F017F121203737EA1D05CB004780320EA
:1000E300D5C17CB00478075002B2D50203B892D5CB
:1000F300BE80FF68F67CB89CB06C00602AB418051B
:100103007C4102038C50FB80032F00047C9B5E9098
:100113000778F630E4067C437D106D0030E3087CFD
:10012300437C327C210A0030F5199F10780E22029D
:1001330003B51B8068F92F1150020B707CB530E7B3
:10014300F1801B2D317CB5A5397C5B50110B807878
:10015300030203B81E341350034E60801A2B0203AC
:100163008C5D22680D5D0078122D220B4068099F7B
:1001730011222D000B0078F90203B01203735C8087
:100183000B806808248150072CB0500A0203B82C56
:10019300B040030203B57C8B5D1178267CB17CA54E
:1001A300BE1080680A5D33780DA5BD80057F1002FF
:1001B30003A26D0080307F017C5B7CB17CA5AD1216
:1001C30080245D337806A5BD80F080E1CA887D4137
:1001D300AD437CB17CA5AD122D1450020B047C5BA6
:1001E300AD232F01DA88A42D05BE008040060B80C5
:1001F300780480982F007C437C507C617C720203DE
:100203008CBE24FFFF6806BE04FFFF78030203B021
:100213001203735CB00468F57CB8A54868EF7CB83A
:1002230070039F1122A5B800030203B82E0081506A
:10023300079C8038070203B59C8050ED0A51C2E742
:100243004D5178030203A27E5400807E901A6C0005
:1002530080061B9068142F11BF1040049F104CABF5
:100263000330E7EECAA86CAA80E8DA39DA587C4A88
:10027300BE5080500A1B8068BC2F1150020B7002C5
:10028300038C74F86CAA6E40806E0080BEB0FF6869
:10029300277C837C975C3B5C7BBF10682AF4400D12
:1002A3007C382D15F45C3B500F0B04800B7C792DAF
:1002B30035F45C7B50020B24BF10680B7CB020E745
:1002C300067CB420E701B3225D226809BE24FFFF48
:1002D30068036E4080227EA020800C7EA0108005E3
:1002E3007EA0086C556D333392D5500A6E34FFFFF0
:1002F3006E24FFFF0B1CA5EC3340062F11D5F0F63F
:10030300227CBA247EA2D5137C767C65A5CC92E7A9
:100313007C5B227CB5337CB43392D54E50802481F0
:1003230040039F11227C457C567C676C7724E05008
:100333000E7E1CFFFF221E341E2450034E608004D9
:1003430078F430D50A6E34FFFF6E24FFFF0B1C22B6
:100353007F707F517EC400017ED400D47E940366F7
:100363000203F14005E47A7BB0227A7BB00B7C2256
:100373002D0092D50E104E10807D422D445002B2B6
:10038300D54E50806C447CB8222C4450120B1C7EFA
:1003930040005E507FBE18000078040B806816A2F0
:1003A300D57CB8137C4B7CB592E77C5B227E1CFF2B
:1003B300FF229F11227E24FF8020D5026C456D33DE
:1003C30022540F2490D43440D430F30CBEB04140B7
:1003D30007BEB05B500224204CCC68021BC00B84C8
:1003E300D389944CCC680B74201203DB80F5CA3B91
:1003F3006D889F337CAE7E5BB00B5C7007C37D382A
:10040300DA3B8994B42569C2F37E5BB00B5CA5F833
:1004130024D0BEB00A501B7E500A20F60DAC5CA55A
:100423002D7CCB70034EF00180DDAC5DA52D7CDB14
:1004330080D524CFBEB01AA5E850055E00DFD2F305
:100443009007C6A3E4936011BCB078F77417934C7C
:10045300AB30F6B34EF08080AEA3E4936010BCB033
:1004630078F77416937C3B7423937C2B89147CB0AC
:10047300801374201203DB20F205BEC00250F31B6D
:100483006D29B600011203DB0203E61B6E69160039
:10049300020B6A00BE08000078087E0400FF7E1489
:1004A300000E20F21E4CCC681A7F10E47E1B804C99
:1004B3008868070B1C04BCBD78F2C2F6CA0B120590
:1004C300C5DA0B7E0BB060C0CA0B1203DBDA0B0B71
:1004D3000C4CDD68EE1BD078EA80ADD2F07E1010B4
:1004E30080037E10085EB05F800AD2F67E100A8019
:1004F300057E100AC2F66D119F117E00201B6C7ED3
:100503006B7030F6021A3720F1051B6C7E6B60307E
:10051300F6041A261A2430F0051B6D0B6A20A5EC8D
:100523003382F692F6500A7CEA9F229F217F127C47
:10053300AE4C44780F7C457C567C676C772E00F874
:1005430078EF80122F117CB3337C3B9CB140047C49
:100553003B0B70A5D8EE7CB230E005DAB8C44C3B57
:10056300CA380B207E00207E3000BE18000078C100
:10057300BE1008780730F404C2F480B5CA287CB2F0
:10058300BCBD38027CBD1205C5DA28BC2D500A1B40
:10059300D0E4CA281203C480F07CB213DAB8400452
:1005A300C4CAB8C4CA28BEF08040095CDD7805A57A
:1005B300DA0260065EF07F1203C4DA28A5DADA02F3
:1005C30003E6BEF001680F30F402240220F5062092
:1005D300F70330F6010420F229BCBC5025CAB87CCD
:1005E300BF13B0E67420501174307C8A5E80F068CB
:1005F300081206055EA00F80031203DBDAB8BCBC49
:1006030078DB30F40F74301203DB745830F3027468
:10061300781203DB30F605742D0203DB742B20F50F
:10062300F8742020F7F3221B6C7E6BB010F1021BD1
:100633006C20F60B30E704F404D2F27CCB80052067
:10064300E7057CDB02040A5EF07F80F81B6E691607
:1006530000020B6A0030F0076D221B0A200B0D1BF2
:100663000A800203F5E46C22BE3007500B7F1F2D76
:10067300312E34FFF77E39B0227CBF20E7A8742ED9
:100683004EF0800203DB1207AF403D7CBD700304D4
:100693007CDB1208C67C3D4C3368101B307CBE20CB
:1006A300E40912066870044C3378F07CBD7CD3BE39
:1006B300A0FD481CBCAB5818E49CBA2CB31801E449
:1006C3007CDB0207501207AF406E7CBD041208C6E4
:1006D3007AFBA07CAE7CBDA2F492F0C2F44002602F
:1006E300010424051205C57E30FF0B30120668CACB
:1006F300381203C420F0044CDD680312067CDA3898
:10070300BC3D78E6740E1203C4742B7EFBA030F755
:1007130007742D6EA0FF0BA07AFBA01203DB7EA053
:100723000A7EFBB0847AFBA01203C47EFBB01203E3
:10073300C49EF800080203E6D2F27ED0000204A5AC
:100743001207AF40F37CBA2CBD041208C67AFBA093
:100753007CBA7CAE30E701E40420F4044CDD680588
:10076300D2F0C2F4042CBD1205C56C337EFBB0601D
:100773001B20E712147AFBB0120668CA381203C4AE
:10078300DA380B3080E6047AFBB01B30120668CAF5
:10079300381203C44CDD680712067C1BD080E19E2F
:1007A300F8000930F00312067C0203E67CEA7CAF12
:1007B30010F7037ED0067CFA1B6E693600020B6AC3
:1007C3002002080E2D2B204C4248232E0053584F55
:1007D30044494355502A4E464547000420800102B0
:1007E3000010408EE0E5EDED7AF4DE2A4F43C88930
:1007F300040404040404040406060706064E614EBA
:10080300002B494E46002D494E46007D522D557C06
:10081300BE92E67CEB7CBA601F0470287CB5C2E70D
:100823007E0400FF60067E140800D3227E140809AC
:1008330040047E140804D322DA099F22CA2BCA2B50
:10084300C3CA09220A0A7E144D10AD109E083AF05D
:100853009E10267CB5C2E77EA0567C9BA46E54FFF7
:10086300FF2E54C511ACA92D15E4A539CAB8CA1B6E
:1008730020E70A120939DA1B120204800AF404126F
:100883000939DA1B120164DAA87CB5337CB4334E20
:1008930050806C4424822F111478FBDA497407BE0C
:1008A300400A40099E400ACA0201140BA0CA486CC0
:1008B300442F117F012F112F112F101478EFCA48E5
:1008C300CA49227F0F20E73ABEB007400274070AE5
:1008D3000B2D109E1400097E19B02EB0FB501F4C37
:1008E300116817E47A19B01B147E19B0047A19B091
:1008F300B40A0BE47A19B0A5D9ED0BA074017A19E7
:10090300B0225EE0BF223F8000004120000042C8C9
:100913000000447A0000461C400047C3500049745D
:1009230024004B1896804CBEBC205A0E1BCA67533A
:10093300C21C749DC5AE7C7B6006540768162323D6
:1009430012095E7CB75438680A7F1012095B1201E2
:10095300647F01227CB7543803241C6CAA2E5409EB
:10096300097E4400FF0B2A006912000222C2D57CD3
:10097300B430E708B2D56E24FFFF0B247CB630E712
:1009830012B2D56E34FFFF0B348D326E24FFFF0B92
:100993002480028D3230D5066E34FFFF0B34227D66
:1009A30002AD31AD102D21226D0074104D00780B76
:1009B3004D2278278D317D126D22227D437D326D4C
:1009C300222F112D445002A50FBF1040049F100B7E
:1009D300901478ED7F016D227D34227D417D138D4E
:1009E300247D022F004004BD0440049D040B141415
:1009F30078F17D237D317D106D0022C2D57CB0302E
:100A0300E708B2D59F229F207F027CB430E713B260
:100A1300D59F229F217F121209AD9F229F207F0223
:100A230080031209AD30D5069F229F217F12226CCD
:100A3300AABE08000068201E540B5450167E1B806B
:100A43007A0B800B1C0B0C800A0B1A401B0A400B01
:100A53001D0B0D1B5478F222CA3B9001020BEA30A6
:100A6300BE34000178319001160BEA101A021A0005
:100A73009000D80BEA301A261A249F109000D479DC
:100A83003E00021BEA207E3510BE34064028086D66
:100A9300339001021BEA30A2B2E4336803020C79FB
:100AA300A2B3E4336803020C799000DA0BEA60BE68
:100AB3006400017806121DD3020BE89000DE0BEAF6
:100AC30070BE7400017806121C89020BE89000E2E4
:100AD3000BEA304D33784A9000D80BEA30BE34002D
:100AE30044083E9001160BEA30BE34004E08327EB5
:100AF3003510BE34083428297E350C2E350ABE3411
:100B03000C80281D4D6678194D7778157E340001C9
:100B13009000E21BEA307E3400026D2212204280F4
:100B230026900104693E00020BEA20BE18157C08DA
:100B3300169000E20BEA30BE340001780A7E3400DE
:100B4300019000DA1BEA307E3510BE3403E85043CF
:100B53007E350C2E350ABE3401F45037BE3400C83E
:100B630028319000DA0BEA304D3378279000DE0B02
:100B7300EA304D33781D9001020BEA304D33781380
:100B83007E3400019000DE1BEA307E3400026D22C9
:100B93001220429001020BEA30BE340001780A7E33
:100BA30024000F9000EA1BEA204D3378389000DAD6
:100BB3000BEA30BE34000178149000DE0BEA204DBE
:100BC30022780A7E2400199000EA1BEA204D33782C
:100BD300149000DE0BEA304D33780A7E340019900E
:100BE30000EA1BEA309000E20BEA30BE34000178E1
:100BF300299000F40BEA301A261A249000F00BEA2D
:100C0300101A021A009F01900104693E00020BEAC8
:100C1300202F10793E00021BEA209000DE0BEA3001
:100C2300BE34000178279001000BEA304D33781D64
:100C33009001BA0BEA101A021A009000F6693E00FE
:100C4300020BEA202F10793E00021BEA209000DA03
:100C53000BEA30BE340001781D9001BA0BEA101A7A
:100C6300021A009000F6693E00020BEA202F107969
:100C73003E00021BEA20A2B2E433B4010280030265
:100C83000EFBA2B3E4336803020EFB9000DA0BEA17
:100C930060BE6400047806120008020E379000DE7E
:100CA3000BEA70BE7400017806121C89020E37909D
:100CB30000E20BEA304D3378429000D80BEA30BEA5
:100CC30034004608369001160BEA30BE340046085D
:100CD3002A7E350E2E3510BE340D16281E7E350C99
:100CE3002E350ABE340C1C28124D66780E4D7778CB
:100CF3000A7E3400019000E21BEA309000E20BEA26
:100D030030BE340001780C7E250A9E250C90011814
:100D13001BEA209001180BEA20BE24FF9C5810BE4A
:100D2300340001780A7E3400029000E21BEA30901E
:100D330000E20BEA30BE3400027839900104693EC8
:100D430000020BEA20BE18106808297E34000490C4
:100D530000DA1BEA307E3400026D221220427E3418
:100D630000039000E21BEA309F11900104793E00DA
:100D7300021BEA207E3510BE3403E850437E350C57
:100D83002E350ABE3401F45037BE3400C8283190E2
:100D930000DA0BEA304D3378279000DE0BEA304D52
:100DA30033781D9001020BEA304D3378137E340003
:100DB300019000DE1BEA307E3400026D22122042D5
:100DC3009000DA0BEA304D33786A9000DE0BEA309C
:100DD3004D3378609000D80BEA30BE340005580ECE
:100DE3009001160BEA20BE24000558028012BE347F
:100DF300003C08189001160BEA20BE24003C080CA6
:100E03007E24001E9000EA1BEA208028BE340005E1
:100E13000822BE34003C581C9001160BEA30BE3445
:100E2300003C5810BE340005080A7E34001E9000B2
:100E3300EA1BEA309000E20BEA30BE340002782964
:100E43009000F40BEA301A261A249000F00BEA10F3
:100E53001A021A009F01900104693E00020BEA2066
:100E63002F10793E00021BEA209000DE0BEA30BE11
:100E730034000178279001000BEA304D33781D9040
:100E830001BA0BEA101A021A009000F6693E00023A
:100E93000BEA202F10793E00021BEA209000DA0BA8
:100EA300EA30BE34000478509001080BEA304D3329
:100EB30078469000F40BEA301A261A249000F00BBF
:100EC300EA101A021A009F01900104693E00020B06
:100ED300EA202F10793E00021BEA209001BA0BEAA8
:100EE300101A021A009000F6693E00020BEA202F46
:100EF30010793E00021BEA20A2B3E433B40102805E
:100F03000302119AA2B2E433680302119A9000DA41
:100F13000BEA60BE64000478061200070210D69044
:100F230000DE0BEA70BE7400017806121C89021001
:100F3300D69000E20BEA304D3378429000D80BEAAA
:100F430030BE34004608369001160BEA30BE34003A
:100F530046082A7E350E2E3510BE340D16281E7E09
:100F6300350C2E350ABE340C1C28124D66780E4DF6
:100F730077780A7E3400019000E21BEA309000E2A9
:100F83000BEA30BE340001780C7E250A9E250C90B6
:100F930001181BEA209001180BEA20BE24FF9C587D
:100FA30010BE340001780A7E3400029000E21BEA8E
:100FB300309000E20BEA30BE34000278399001042D
:100FC300693E00020BEA20BE1811F808297E34009E
:100FD300049000DA1BEA307E3400026D22122042B4
:100FE3007E3400039000E21BEA309F1190010479E4
:100FF3003E00021BEA207E3510BE3403E850437ED8
:10100300350C2E350ABE3401F45037BE3400C828DF
:10101300319000DA0BEA304D3378279000DE0BEA8B
:10102300304D33781D9001020BEA304D3378137E37
:101033003400019000DE1BEA307E3400026D221280
:1010430020429000DA0BEA304D3368030210D69049
:1010530000DE0BEA304D33787A9001020BEA30BEA2
:10106300340001780A7E2400149000EA1BEA204D24
:101073003378609000D80BEA30BE340005580E90E8
:1010830001160BEA20BE24000558028012BE34006C
:101093003C08189001160BEA20BE24003C080C7E85
:1010A3002400199000EA1BEA208028BE34000508BA
:1010B30022BE34003C581C9001160BEA30BE3400AB
:1010C3003C5810BE340005080A7E3400199000EA2B
:1010D3001BEA309000E20BEA30BE3400027829901C
:1010E30000F40BEA301A261A249000F00BEA101AC7
:1010F300021A009F01900104693E00020BEA202FAF
:1011030010793E00021BEA209000DE0BEA30BE3469
:10111300000178279001000BEA304D33781D9001D0
:10112300BA0BEA101A021A009000F6693E00020B8D
:10113300EA202F10793E00021BEA209000DA0BEA26
:1011430030BE34000478509001080BEA304D3378F8
:10115300469000F40BEA301A261A249000F00BEAAA
:10116300101A021A009F01900104693E00020BEA63
:10117300202F10793E00021BEA209001BA0BEA10DF
:101183001A021A009000F6693E00020BEA202F10A3
:10119300793E00021BEA20A2B3E433B401028003C8
:1011A30002136FA2B2E433B40102800302136F7E11
:1011B30034000190010A1BEA309000DA0BEA60BEAA
:1011C3006400017806121DD30212DE9000DE0BEAE2
:1011D30070BE7400017806121C890212DE9000E2D0
:1011E3000BEA304D33784A9000D80BEA30BE340016
:1011F30044083E9001160BEA30BE34004E08327E9E
:101203003510BE34083428297E350C2E350ABE34F9
:101213000C80281D4D6678194D7778157E340001B2
:101223009000E21BEA307E3400026D2212204280DD
:1012330026900104693E00020BEA20BE18125C08E6
:10124300169000E20BEA30BE340001780A7E3400C7
:10125300019000DA1BEA307E3510BE3403E85043B8
:101263007E350C2E350ABE3401F45037BE3400C827
:1012730028319000DA0BEA304D3378279000DE0BEB
:10128300EA304D33781D9001020BEA304D33781369
:101293007E3400019000DE1BEA307E3400026D22B2
:1012A3001220429000DA0BEA30BE34000178149029
:1012B30000DE0BEA204D22780A7E2400149000EA17
:1012C3001BEA204D3378149000DE0BEA304D33785F
:1012D3000A7E34001F9000EA1BEA309000E20BEA1A
:1012E30030BE34000178299000F40BEA301A261A34
:1012F300249000F00BEA101A021A009F01900104D7
:10130300693E00020BEA202F10793E00021BEA20FF
:101313009000DE0BEA30BE34000178279001000B09
:10132300EA304D33781D9001BA0BEA101A021A0005
:101333009000F6693E00020BEA202F10793E00026E
:101343001BEA209000DA0BEA30BE340001781D90CE
:1013530001BA0BEA101A021A009000F6693E000265
:101363000BEA202F10793E00021BEA20DA3B22CA47
:101373007BCA6BCA5BCA4BCA2BCA1BCA0BC0D1C080
:10138300D0C083C0827E3401B47E24000190006EFD
:10139300793E00021BEA207E3401B67E24000190D0
:1013A3000072793E00021BEA207E3401B87E2400DD
:1013B30001900076793E00021BEA207E3401BA7E5A
:1013C30024000190007A793E00021BEA207E14017A
:1013D300B07E0400017E3401B27E2400011221E3B9
:1013E30074011225149000F01BEA307402122514C4
:1013F3009000F41BEA3012157F90011E0BEA30BEF9
:1014030034000178287E34000290011E1BEA306DFF
:10141300339000DA1BEA309000DE1BEA309000E6DE
:101423001BEA307E3400019001021BEA3090011E5A
:101433000BEA30BE340002780B9000E80BEA300B65
:10144300341BEA30120A5B9000DA0BEA304D337832
:101453002A9000DE0BEA304D3378209001160BEA18
:10146300101A021A009000D80BEA301A261A249F89
:10147300109000D4793E00021BEA209000E80BEAAA
:1014830030BE34000378189000D4693E000212275E
:10149300A69001141BEA306D339000E81BEA3090EC
:1014A30001140BEA301226D190010C1BEA30900094
:1014B300DA0BEA30BE3400046810BE340005781A33
:1014C3009001080BEA304D3378109000D4693E0048
:1014D300021226D190010C1BEA309001020BEA3074
:1014E300BE340001781690010A0BEA30BE340001C5
:1014F300780A7E3400169000EA1BEA309000F40B61
:10150300EA209000F00BEA309D327E24000212099B
:10151300709000EA0BEA201224A39000DC1BEA304F
:1015230090010C0BEA207D139D1290010E1BEA1013
:101533002D329001101BEA3090011E0BEA304D331F
:101543006806BE340003780E6D3390010E1BEA303B
:101553009001101BEA3090010E0BEA309001100B42
:10156300EA20122124D082D083D0D0D0D1DA0BDA72
:101573001BDA2BDA4BDA5BDA6BDA7B3274087E70B8
:10158300051226347A350874097E70051226347ADA
:10159300350A740A7E70051226347A350C740B7E74
:1015A30070051226347A350EE47E70051226347DDA
:1015B300E37A35107E2508E41202DE7E1480007E75
:1015C3000444D41202046DDD7EC442C87F061201B6
:1015D300641203169000D81BEA307E250AE4120237
:1015E300DE7F061200A97EB4B0007EA445797F0594
:1015F3001202047F061201641203167DF390011A8E
:101603001BEA307E250CE41202DE7F061200A97F5E
:10161300051202047F061201641203169001121BC5
:10162300EA307E250EE41202DE7E1480007E04443E
:10163300ED1202047F061201641203169001161BB9
:10164300EA307D2EE41202DE7F061200A97F051226
:1016530002047F061201641203169000FE1BEA3097
:10166300BEF4000058046D33800690011A0BEA3073
:1016730090011A1BEA3090011A0BEA30BE34006461
:1016830008067E340064800690011A0BEA3090014C
:101693001A1BEA309001160BEA30BE3400005804DE
:1016A3006D3380069001160BEA309001161BEA3069
:1016B3009001160BEA30BE34006408067E340064E1
:1016C30080069001160BEA309001161BEA30900059
:1016D300D80BEA30BE34000058046D338006900006
:1016E300D80BEA309000D81BEA309000D80BEA30D0
:1016F300BE34006408067E34006480069000D80B74
:10170300EA309000D81BEA309001120BEA30BE3465
:10171300000058046D3380069001120BEA309001EB
:10172300121BEA309001120BEA30BE340064080643
:101733007E34006480069001120BEA309001121B84
:10174300EA309000FE0BEA30BE34000058046D33DB
:1017530080069000FE0BEA309000FE1BEA309000FA
:10176300FE0BEA30BE34006408067E340064800653
:101773009000FE0BEA309000FE1BEA3022CA3B7F4A
:101783003090008F7AEB7090008EF0E4900090F030
:10179300900091F07E3400019000921BEA30021910
:1017A3003BE4900090F07E3400019000921BEA30FD
:1017B3008052900090E00A3B6D227F012E0400FFCF
:1017C3002E082E017E0BA0900091E00A1B2D177DA1
:1017D300067E0BB0BCAB78252E2400FF2E182E02FC
:1017E3007E1B6029700001BC6778129000907EEB2D
:1017F30070740EACB79000921BEA50801F9000905B
:10180300E00BB1F0900090E00A3B6D222E2400FF24
:101813002E182E017E1B70BE707F389690008EE0CE
:10182300BEB076280BE490008EF090008FE004F0B9
:1018330090008EE090008F7EEB70122960900092F2
:101843000BEA30BE34000178030218D990008EE011
:1018530090008F7EEB70122960E4900090F090006E
:10186300920BEA306D222E2400FF2E182B0D7E1BC7
:10187300B01229169000920BEA300B341BEA309019
:101883000090E004F0900090E0B40ED290008FE05E
:101893000A3B0B349000947AEB7090008EE012298F
:1018A30060E4900090F09000920BEA306D222E24B9
:1018B30000FF2E182B0D7E1BB01229169000920BE1
:1018C300EA300B341BEA30900090E004F090009073
:1018D300E0B40ED28054900091E004F090008EE0CA
:1018E30090008F7EEB70122960E4900090F0E41278
:1018F3002916900090E004F0900090E0B410EF906F
:10190300008FE00A3B0B349000947AEB7090008ECA
:10191300E0122960E4900090F0E412291690009000
:10192300E004F0900090E0B410EF90008EE0240EFD
:10193300F0900091E00BB1F0900091E00A3B2D375D
:101943007D267E1BB060030217A4DA3B221225E436
:101953007E34000212293B122350E47E70027E146F
:101963003CD47E0400FF1217807E3400C8122A4440
:101973001223FE122AA87E3430D4121F1A1229838E
:10198300122A95120066120026122AC67E14003609
:101993007E0400011225807E1400067E04000112DD
:1019A30025809F11900036793E00021BEA209000AB
:1019B3003A793E00021BEA2090003E793E00021B6A
:1019C300EA20900006793E00021BEA2090000A7983
:1019D3003E00021BEA2090000E793E00021BEA2023
:1019E300D2AF121AF5900000E0900003F0900001CE
:1019F300E0900004F0900002E0900005F0A2F8E40B
:101A030033900000F0A2F9E433900001F0A2FAE46D
:101A130033900002F0900000E0600C900003E0704F
:101A2300067401900067F0900001E0600C900004E0
:101A3300E070067401900068F0900002E0600C9082
:101A43000005E070067401900069F0900067E060A3
:101A53000FE4900067F074FF9000667EEBA0A4F0A3
:101A6300900068E06034E4900068F0900066E0B4B1
:101A7300010B90011E0BEA300B341BEA30B4FF1A42
:101A83006D117E043F8090019C693E00020BEA20A9
:101A93001200AC793E00021BEA20900069E070035B
:101AA3000219E5E4900069F09000667EEBF0BEF069
:101AB30001781A6D117E043F809001A0693E0002F7
:101AC3000BEA201200A9793E00021BEA20BEF0FFB8
:101AD30068030219E56D117E043F8090019C693E05
:101AE30000020BEA201200A9793E00021BEA200241
:101AF30019E59000D80BEA309000D21BEA30900130
:101B0300160BEA309000D01BEA307E14008E7E0460
:101B130000017E343BBD7E2400FF120353E46C7747
:101B23007E14008E7E0400011222A07E350A9000EE
:101B3300D21BEA307E350C9000D01BEA307E1400B5
:101B43008E7E0400017E343BAD7E2400FF120353DE
:101B5300E47E70017E14008E7E0400011222A07EBA
:101B630035109000D21BEA309000D4693E00020B7E
:101B7300EA209000CE793E00021BEA207E14008EFC
:101B83007E0400017E343B9E7E2400FF120353E457
:101B93007E70027E14008E7E0400011222A090004B
:101BA300F00BEA309000D21BEA309000F40BEA30DD
:101BB3009000D01BEA307E14008E7E0400017E3438
:101BC3003B927E2400FF120353E47E70037E1400D5
:101BD3008E7E0400011222A090010E0BEA309000C9
:101BE300D21BEA309001100BEA309000D01BEA3090
:101BF3007E14008E7E0400017E343B837E2400FF2E
:101C0300120353E47E70047E14008E7E04000112DE
:101C130022A09001020BEA309000D21BEA3090011F
:101C23001E0BEA309000D01BEA307E14008E7E0437
:101C330000017E343B737E2400FF120353E47E7065
:101C4300057E14008E7E0400011222A0A2B2E433AA
:101C53000A3B9000D21BEA30A2B3E4330A3B900064
:101C6300D01BEA307E14008E7E0400017E343B617B
:101C73007E2400FF120353E47E70067E14008E7EE2
:101C83000400010222A09000DE0BEA30BE34000102
:101C930078689000E60BEA304D33785E9000F66981
:101CA3003E00020BEA20740A1E340E2450034E60D9
:101CB300801478F4BE1CFF6A08409000FC0BEA30E5
:101CC3009E34001E1BEA309000FC0BEA301A261AE1
:101CD300249000D4793E00021BEA20BE1CFFBA58B0
:101CE3000E7E1CFFBA9000D4793E00021BEA207ED0
:101CF3003400019000F21BEA30229000F6693E00A6
:101D0300020BEA20740A1E340E2450034E60801422
:101D130078F4BE1CFF6A58067E34000180026D33DE
:101D23009000F21BEA304D337803021DD27E24006B
:101D3300019001001BEA209001160BEA501A4A1A7F
:101D4300489000D80BEA101A021A009F029000D4A0
:101D5300791E00021BEA009000F20BEA30BE340049
:101D63000178339000D4791E00021BEA009000F43E
:101D73000BEA101A021A009000F00BEA501A4A1AE2
:101D8300489F20900104691E00020BEA002F02798C
:101D93001E00021BEA00900104691E00020BEA0008
:101DA300BE082710482990011E0BEA30BE340002FA
:101DB300780A7E34000390011E1BEA307E34000251
:101DC3001220429F11900104793E00021BEA202257
:101DD3009000DA0BEA30BE34000178539000F669C4
:101DE3003E00020BEA20740A1E340E2450034E6098
:101DF300801478F4BE1CFF3808359000EE0BEA30EF
:101E03009E34001E1BEA309000EE0BEA301A261AAD
:101E1300249000D4793E00021BEA20BE1CFFBA586E
:101E23000E7E1CFFBA9000D4793E00021BEA20907C
:101E330000F6693E00020BEA20740A1E340E245099
:101E4300034E60801478F4BE1CFF38582A7E1400B9
:101E5300019000FA1BEA109001160BEA501A4A1A75
:101E6300489000D80BEA101A021A009F029000D47F
:101E7300791E00021BEA009000FA0BEA10BE140060
:101E830001781CBE1CF74A58169F119000D4793E66
:101E930000021BEA207E3400019000E41BEA30902C
:101EA30000E40BEA30BE340001786B900104693E14
:101EB30000020BEA20BE18927C085B9001160BEA25
:101EC300101A021A009000D80BEA301A261A249F1F
:101ED300109000D4793E00021BEA206D339000E29B
:101EE3001BEA309000DA1BEA309000FA1BEA3090CC
:101EF30000E41BEA309F11900104793E00021BEAC3
:101F0300209000F6793E00021BEA207E3400027E18
:101F130024000102204222CAF87DF3439B8074020D
:101F23007E34FEF17E24007E7A1BB0E47E14FEEC48
:101F33007E04007E7A0BB07E34FEED7A1BB07EF019
:101F4300607E54FEE87E44007E7A2BF07E54FEE9E8
:101F53007A2BF07E54FEEA7A2BF07E54FEEB7A2B3A
:101F6300F074337A0BB07A1BB07D1F6D007E34960C
:101F7300807E2400981209FE7E14FEF27E04007E09
:101F83007A0B607C377E34FEF37E24007E7A1B302E
:101F9300E47E34FEF57A1BB074147E34FEF67A1BAD
:101FA300B0E47E34FEF77A1BB074147E34FEF87A04
:101FB3001BB0E47E34FEF97A1BB074147E34FEFA4F
:101FC3007A1BB0E47E34FEFB7A1BB074147E34FEBD
:101FD300FC7A1BB0E47E34FEB57A1BB07E1BB044A2
:101FE300017A1BB07E1BB044047A1BB07E1BB04445
:101FF300107A1BB07E1BB044407A1BB0E47E34FEE3
:10200300B67A1BB07E1BB044037A1BB07E1BB04470
:102013000C7A1BB07E1BB044307A1BB07E1BB044DD
:10202300C07A1BB074807E34FEFD7A1BB07E34FE12
:10203300E07E1BB044017A1BB0539B7FDAF8221B6E
:102043003468381B3468561B3468711B34780302B8
:1020530020DE0B3668030221234D227803C2A0221F
:10206300BE2400017803D2A022BE2400026803022A
:10207300212330A003C2A022D2A0224D227803C282
:10208300A122BE2400017803D2A122BE240002684B
:102093000302212330A103C2A122D2A1224D22781F
:1020A30003C2C222BE2400017803D2C222BE24008E
:1020B30002786D30C203C2C222D2C2224D227803FB
:1020C300C2EA22BE2400017803D2EA22BE2400021F
:1020D300784E30EA03C2EA22D2EA224D227809C2BC
:1020E300A0C2A1C2C2C2EA22BE2400017809D2A0C2
:1020F300D2A1D2C2D2EA22BE240002782330A004A5
:10210300C2A08002D2A030A104C2A18002D2A13019
:10211300C204C2C28002D2C230EA03C2EA22D2EAB5
:10212300227D027D43BE440000582E6E44FFFF0B08
:1021330044439B80E47E34FEF57E24007E7A1BB00C
:102143007E34FEF67A1BB01A187E34FEF77A1B3003
:102153007E34FEF87A1B908026439B801A187E34C7
:10216300FEF57E24007E7A1B307E34FEF67A1B90C9
:10217300E47E34FEF77A1BB07E34FEF87A1BB0534C
:102183009B7FBE040000582E6E04FFFF0B04439B8D
:1021930080E47E34FEF97E24007E7A1BB07E34FE1A
:1021A300FA7A1BB01A107E34FEFB7A1B307E34FEA3
:1021B300FC7A1B108026439B801A107E34FEF97E26
:1021C30024007E7A1B307E34FEFA7A1B10E47E34C0
:1021D300FEFB7A1BB07E34FEFC7A1BB0539B7F223E
:1021E300CA3B7F3190006A1BEA00791E0002743BF0
:1021F3007E700E7E14007E7E040001122AD49000AD
:102203007FE07C0B6C11900080E00A1B4D10900066
:102213006A693E00020BEA201B1A10900081E07CE1
:102223004B6C55900082E00A3B4D321B3A309000D4
:1022330083E07C0B900084E00A1B4D1090006E69D4
:102243003E00020BEA201B1A10900087E07C0B90E3
:102253000088E00A1B4D10900072693E00020BEAF1
:10226300201B1A10900089E07C0B90008AE00A1B67
:102273004D10900076693E00020BEA201B1A109065
:10228300008BE07C0B90008CE00A1B4D1090007AD1
:10229300693E00020BEA201B1A10DA3B22CA3B7F7D
:1022A300309000AD7AEB709000ACF0E49000AEF0AB
:1022B3009000AFF09000B0F0807E9000B0E00A3B59
:1022C3002D377D267E1B701A579E5400209000AE3A
:1022D300F09000ACE0BEB07E280BE49000ACF09030
:1022E30000ADE004F09000ACE09000AD7EEB701226
:1022F3002960E49000AFF09000AEE00A3B6D227ECF
:102303001400061209A29000AFE00A1B6D002F1003
:102313002E2400FF2E182E387E1BB0122916900093
:10232300AFE004F09000AFE0B406CC9000ACE02442
:1023330006F09000B0E004F09000B0E00A3B2D37C7
:102343007D267E1BB060030222BDDA3B2253EEE002
:10235300E5EEF5EE53EFE0E5EFF5EFD2ECC2EA7E02
:10236300340032122A44D2EA74AE1228F1E412285D
:10237300F174101228F174401228F174811228F1BB
:1023830074CF1228F174A11228F174C81228F174C1
:10239300A61228F174A81228F1743F1228F174D3FD
:1023A3001228F1E41228F174D51228F1748012284E
:1023B300F174D91228F174F11228F174DA1228F1A8
:1023C30074121228F174DB1228F174401228F1748C
:1023D300201228F174021228F1748D1228F174145A
:1023E3001228F174A41228F174A61228F174AF1202
:1023F30028F1120026E46C77022960CAF8122A5BDE
:102403007E340064122A44747512299D7CFB0A3BB6
:102413009000D21BEA307E14008E7E0400017E34CD
:102423003BCD7E2400FF12035374017E70017E14A2
:10243300008E7E0400011222A0BEF098680474018D
:10244300805B746B7E70801229B77E340064122A1D
:1024530044746B6C771229B77E340064122A447477
:1024630003122A827401122A6F7E3403E81228961B
:10247300741A7E70041229B774386C771229B774F2
:10248300236C771229B7746A6C771229B7746B7E41
:1024930070011229B7746C6C771229B7E4DAF82249
:1024A3007DD29DD39001920BEAC02DCD1BEAC09043
:1024B30001920BEAC0BEC4012C080A7EC4012C9011
:1024C30001921BEAC09001920BEAC0BEC4FED4582D
:1024D3000A7EC4FED49001921BEAC09001920BEADB
:1024E300207CB41202DE90019C691E00020BEA00FC
:1024F3001201647F717D2D7CB41202DE9001A0690C
:102503001E00020BEA001201647F071200AC0203F3
:10251300167C5B6D33A5BD013030870EE5C97C4B5E
:102523006C55E5CA0A3B4D328012E5C97C4B6C55AC
:10253300E5CA0A3B4D326E34FFFF0B3453DB7F7524
:10254300C90075CA0043DB8022A5BD022F30850E6A
:10255300E5CB7C4B6C55E5CC0A3B4D328012E5CB89
:102563007C4B6C55E5CC0A3B4D326E34FFFF0B348C
:1025730053DBF775CB0075CC0043DB08227F209F2C
:1025830011793200021B2A207932000679220004D5
:102593007932000A792200087932000E7922000C80
:1025A3007932001279220010793200167922001450
:1025B3007932001A792200187932001E7922001C20
:1025C30079320022792200207932002679220024F0
:1025D3007932002A792200287932002E7922002CC0
:1025E30022759200439B8075A901E47E34FE017E2F
:1025F30024007E7A1BB0539B7F43FF1075F1407517
:10260300F20074407E34FE107A1BB075F30075F44B
:102613000075F90075FA0075FB0075FC0075EC0098
:1026230075ED0074FF7E34FE177A1BB0C2C0C2AFD3
:1026330022CAD8CA797CF77CEB9F1190006A793E55
:1026430000021BEA206CDD801E7CBE1228C57D13B0
:102653006D0090006A693E00020BEA202F10793E5C
:1026630000021BEA200BD0BCDF40DE0A1F6D009086
:10267300006A693E00020BEA201209ADDA79DAD862
:1026830022CAB8CA39C0D1C083C082E5BC30E02BAE
:1026930053BCFEE5BD0A3B90011C1BEA3090011CB4
:1026A3000BEA304D33681490011E0BEA304D33783A
:1026B3000A7E34000190011E1BEA30E5BC30E103C1
:1026C30053BCFDD082D083D0D1DA39DAB83290014D
:1026D300BA0BEA207DF39DF29001AA0BEA307D2F1D
:1026E3009D237CB41202DE9001A4691E00020BEA52
:1026F300001201647F617D2F7CB41202DE90018E93
:10270300691E00020BEA001201647F061200AC127C
:1027130003169001AA1BEAF0227584017E44041F6C
:10272300E47A49B01B4478F97EF800117E0400FF77
:102733007E1439900B0A405D446822295000020A36
:1027430025693000032E0800050B44800A7E0BB078
:102753007A1BB00B1C0B0C1B4478F280D702195068
:102763007D437F70C2A2D2A56CAA7E7BB0BEB0802F
:102773004003D38001C392A4C2A53EB07A7BB0D2FA
:10278300A5A2A3E4337C7B7E7BB04CB77A7BB00BF2
:10279300A0BEA00878D40BF47D341B347D4378C8E5
:1027A300D2A2227DD39001A80BEA307D2D9D237CFC
:1027B300B41202DE900194691E00020BEA001201BA
:1027C300647F717D2D7CB41202DE900198691E0036
:1027D300020BEA001201647F071200AC1203169089
:1027E30001A81BEAD022BE3400BC40057EA00180B4
:1027F3002FBE34006240057EA0028024BE34002A2E
:1028030040057EA0038019BE34001440057EA00459
:10281300800EBE34000A40057EA00580037EA0061C
:10282300741A7C7A0229B7CA7BCA6BCA5BCA4BCAC1
:102833002BCA1BCA0BC0D1C0D0C083C0826D337EEC
:10284300240002122042D082D083D0D0D0D1DA0B20
:10285300DA1BDA2BDA4BDA5BDA6BDA7B32CA7BCA46
:102863006BCA5BCA4BCA2BCA1BCA0BC0D1C0D0C030
:1028730083C0826D337E240002122042D082D08333
:10288300D0D0D0D1DA0BDA1BDA2BDA4BDA5BDA6B86
:10289300DA7B32CA797D73BE7403E828047E74033D
:1028A300E8BE74000450047E7400047E3403E88D93
:1028B300371B3474191229B77D371E341227E9DA0E
:1028C300792275DD0075DE0053DCF07EA1DC4EA0BD
:1028D300404CBAF5DC00000000E5DC30E5FB53DCDE
:1028E300DFE5DD7C4B6C55E5DE0A3B4D32227C7B1C
:1028F3007E6008C2E9C2EC80117CB730E704D2EBFA
:102903008002C2EBD2ECC2EC3E707CA61B604CAAE8
:1029130078E7227C7B7E6008D2E9C2EC80117CB729
:1029230030E704D2EB8002C2EBD2ECC2EC3E707C07
:10293300A61B604CAA78E722BE340002780C7E18EE
:10294300FFBF1229D075BC10800C75BC5075C9FF30
:1029530075CABF75DBA043E710439B0422CAF87C0A
:10296300FB0A572E5400B01228F17CBF54F0C45414
:102973000F44101228F17CBF540F1228F1DAF82209
:10298300439B80743F7E34FEAB7E24007E7A1BB073
:10299300539B7F43DF2F75DC80224480900098F0A7
:1029A3007E1400987E0400017E3400021227639097
:1029B3000099E022900098F09000997AEB707E14D1
:1029C30000987E0400017E3400020227635393EFD4
:1029D3005393F74393047CB6F5CD7F21F5CE53E7AC
:1029E300FB43931022CAB8C0D1C083C0829001C4F4
:1029F300E004F0D082D083D0D1DAB832CAB8C0D1E3
:102A0300C083C0829001C5E004F0D082D083D0D1CE
:102A1300DAB832CAB8C0D1C083C0829001C7E0041B
:102A2300F0D082D083D0D1DAB832CAB8C0D1C08353
:102A3300C0829001C8E004F0D082D083D0D1DAB84C
:102A4300327D237E3413887D131B147D3178F87D0A
:102A5300121B147D2178EC2275F50075F600743C89
:102A63007E34FE127E24007E7A1BB0227CAB741C63
:102A7300CAB87CBAC40354F87C7BDAB80229B77CA1
:102A8300AB741BCAB87CBAC40354F87C7BDAB802B3
:102A930029B775CC0075CB0043DB0C75CA0075C92B
:102AA3000043DBC02253D2F0E5D2F5D253D3F0E595
:102AB300D3F5D322C0D1309802C298309902C2997B
:102AC300D0D13253F5FEE5F5F5F553F6FE43F601A5
:102AD300227F7044807A7BB00A370B34022763432A
:102AE3004E543A2530336420004C5120652D6D6FD0
:102AF300746F726379636C6500B1B1BEA9C1FAC723
:102B0300F1D6C7C4DCBFC6BCBC0020202020FE0019
:102B13000000FE8040201000101008047F00000019
:102B23003F40404070000808E828282A2C2828281D
:102B3300E80808000020130A42427E02020A13201A
:102B4300000000F090909090FE90909090F0000024
:102B5300000F040404043F4444444447700080824B
:102B630082828282C2A2928A868280000000000052
:102B730040407F00000000000000404848F8444403
:102B830020C41800FE0000000804037F02040202B0
:102B930002027F0101001010FE1000909090FE9041
:102BA3009010000042427F01404023140814234048
:102BB300400004FC2424FC0400FC040404FC000086
:102BC300101F11097F0840330202021360001060D6
:102BD3008000FE000000FE00807000004040434083
:102BE3007F4040407F424140400070109294909259
:102BF30094909894121070000404040444447E06D4
:102C0300050404040400FC04649C001848484A4C6E
:102C1300484818007F0808074022120E02023E426D
:102C2300620020202020A07E20E0242820A0200075
:102C33004020100C2320103F44424140700000FC10
:102C4300444444C24200FC0444B40C00101F10105E
:102C5300080F08007F0010100F0028A6643C64A42E
:102C630020FC848484FC000001007E2A2A2A2A2A6C
:102C73002A2A7E00000010989492909830003E48D3
:102C830048447400007F0A0A4A7F00003F444442DC
:102C930071001090FE901000FC040404FC0000007E
:102CA30002017F0041300F0000003F407000809E12
:102CB3009292929EC09E92B2D29E8000047C4A4A17
:102CC30049780078494A4A7C0400000000000080EB
:102CD3007E80000000000000404020100C03000331
:102CE3000C10204040004042CC00846C544CD4442F
:102CF300524E020040201F20425A52525F52525AF3
:102D030042001010FE100098482A0C08284898002A
:102D130042427F01004042427E4242424000809E46
:102D23009292929EC09E92B2D29E8000047C4A4AA6
:102D330049780078494A4A7C04001010FE10504834
:102D430058EA4C685848400042427F01424A2E13D9
:102D5300122A2642020000F80000FE004020DE1086
:102D630010F01000000702017F0040201708162111
:102D7300400000302C20A0702E202020242820008A
:102D830010084442412729112925434040008084EB
:102D9300980080929490F0909492800040201F209D
:102DA300405048464142445840001010FE1000B8BD
:102DB3008888EA8C8888B80042427F010040442713
:102DC3001808142340002050CE4800C8B820A8FE9D
:102DD300A8F8200002023F5228102F204A7F4A4AB7
:102DE3004800000000808000000000000000000098
:102DF3000000001919000000000000000000B1B13C
:102E0300BEA9B5E7D7D3BFC6BCBCD6B0D2B5D1A790
:102E1300D4BAC1FAC7F1D6C7C4DCBBFAC6F7C8CB6C
:102E2300D2A3BFD8C6F7BDD3CAD5B7A2CBCDB0B452
:102E3300BCFCA3BA000000000000000000002F004B
:102E43000000000700070000147F147F1400242AE9
:102E53007F2A12006264081323003649552250006A
:102E6300000503000000001C224100000041221C59
:102E7300000014083E08140008083E08080000007B
:102E8300A060000008080808080000606000000057
:102E93002010080402003E5149453E0000427F4095
:102EA30000004261514946002141454B310018144D
:102EB300127F10002745454539003C4A49493000F7
:102EC3000171090503003649494936000649492974
:102ED3001E000036360000000056360000000814BD
:102EE3002241000014141414140000412214080099
:102EF300020151090600324959513E007C12111258
:102F03007C007F49494936003E41414122007F41CF
:102F130041221C007F49494941007F0909090100F9
:102F23003E4149497A007F0808087F0000417F41FC
:102F330000002040413F01007F08142241007F40F0
:102F4300404040007F020C027F007F0408107F0096
:102F53003E4141413E007F09090906003E4151219E
:102F63005E007F091929460046494949310001019C
:102F73007F0101003F4040403F001F2040201F00D1
:102F83003F4038403F00631408146300070870088B
:102F93000700615149454300007F41410000552A24
:102FA300552A55000041417F00000402010204003C
:102FB30040404040400000010204000020545454AB
:102FC30078007F484444380038444444200038445F
:102FD30044487F00385454541800087E0901020005
:102FE30018A4A4A47C007F080404780000447D4056
:102FF30000004080847D00007F10284400000041D1
:103003007F4000007C04180478007C0804047800E6
:10301300384444443800FC24242418001824241879
:10302300FC007C0804040800485454542000043F66
:10303300444020003C4040207C001C2040201C00D9
:103043003C4030403C004428102844001CA0A0A071
:103053007C004464544C44141414141414000000ED
:10306300000000000000000000000000000000005D
:10307300F800000000000000333000000000100CD6
:1030830006100C0600000000000000000040C0789D
:1030930040C0784000043F04043F040400007088EB
:1030A300FC08300000001820FF211E0000F008F08B
:1030B30000E018000000211C031E211E0000F00880
:1030C30088700000001E2123241927211010160EDA
:1030D30000000000000000000000000000000000ED
:1030E300E01804020000000007182040000002045A
:1030F30018E0000000004020180700000040408056
:10310300F0804040000202010F01020200000000B3
:10311300F0000000000101011F0101010000000097
:10312300000000000080B0700000000000000000FC
:103133000000000000000101010101010100000085
:10314300000000000000303000000000000000001C
:103153000080601804006018060100000000E01001
:10316300080810E000000F102020100F00001010BE
:10317300F8000000000020203F202000000070081D
:10318300080888700000302824222130000030080D
:1031930088884830000018202020110E000000C04D
:1031A3002010F8000000070424243F240000F8083E
:1031B30088880808000019212020110E0000E01063
:1031C3008888180000000F112020110E0000380815
:1031D30008C83808000000003F00000000007088A5
:1031E3000808887000001C222121221C0000E01026
:1031F300080810E0000000312222110F0000000037
:10320300C0C00000000000003030000000000000DB
:1032130080000000000000806000000000000080CB
:103223004020100800000102040810200040404024
:103233004040404000040404040404040000081057
:1032430020408000000020100804020100007048A4
:10325300080808F0000000003036010000C030C844
:1032630028E810E0000718272423140B000000C0EF
:1032730038E0000000203C23020227382008F888A9
:103283008888700000203F202020110E00C03008E5
:103293000808083800071820202010080008F8083C
:1032A300080810E000203F202020100F0008F888B5
:1032B30088E8081000203F20202320180008F88801
:1032C30088E8081000203F200003000000C03008F9
:1032D300080838000007182020221E020008F808FA
:1032E300000008F808203F210101213F20000808C1
:1032F300F8080800000020203F20200000000008FC
:1033030008F8080800C08080807F00000008F88863
:10331300C028180800203F20012638200008F8089C
:103323000000000000203F20202020300008F8F893
:1033330000F8F80800203F003F003F200008F83065
:10334300C00008F808203F200007183F00E01008DD
:10335300080810E0000F10202020100F0008F808C4
:10336300080808F000203F210101010000E01008D7
:10337300080810E0000F18242438504F0008F8887C
:103383008888887000203F2000030C30200070885C
:1033930008080838000038202121221C00180808DA
:1033A300F8080818000000203F2000000008F80873
:1033B300000008F808001F202020201F000878883C
:1033C3000000C83808000007380E010000F80800A4
:1033D300F80008F800033C0700073C0300081868DE
:1033E300808068180820302C03032C30200838C84C
:1033F30000C83808000000203F2000000010080823
:1034030008C83808002038262120201800000000B2
:10341300FE020202000000007F40404000000C302A
:10342300C000000000000000010638C000000202D6
:1034330002FE000000004040407F00000000000446
:10344300020202040000000000000000000000006F
:103453000000000000808080808080808000020265
:1034630004000000000000000000000000000080D5
:1034730080808000000019242222223F2008F800C7
:103483008080000000003F112020110E000000008A
:103493008080800000000E11202020110000000019
:1034A300808088F800000E112020103F200000804B
:1034B3008080800000001F222222221300008080CF
:1034C300F0888888180020203F202000000000801A
:1034D3008080808000006B94949493600008F800CF
:1034E3008080800000203F210000203F2000809842
:1034F30098000000000020203F2020000000000072
:10350300809898000000C08080807F000008F80049
:103513000080808000203F24022D30200000080816
:10352300F8000000000020203F2020000080808061
:103533008080808000203F20003F20003F8080006B
:103543008080800000203F210000203F2000008079
:103553008080800000001F202020201F008080002A
:10356300808000000080FFA12020110E00000000D9
:103573008080808000000E112020A0FF808080804A
:10358300008080800020203F212000010000008077
:10359300808080800000332424242419000080804C
:1035A300E0808000000000001F20200000808000D9
:1035B3000000808000001F202020103F208080809A
:1035C300000080808000010E30080601008080002A
:1035D30080008080800F300C030C300F000080804F
:1035E30000808080000020312E0E312000808080FA
:1035F300000080808080818E70180601000080802A
:1036030080808080000021302C22213000000000C7
:1036130000807C020200000000003F4040000000E8
:1036230000FF00000000000000FF00000000020295
:103633007C800000000040403F00000000000601C5
:10364300010202040400000000000000000000006A
:103653000000000000000000000000000000000067
:103663000000000000000000000000000000000057
:10367300000000000000003F3F3F3F3FC0C0C0C00C
:10368300C000000000000000000000000000000077
:103693000000000000000000000000000000000027
:1036A3000000000000000000000000000000000017
:1036B3000000000000000080C0E0E0F0F0F0F00047
:1036C30000000000F0F0F0F0F0F0F0F0F0F0F0F0B7
:1036D300F0F0F0F0F0F0F0F0F0F0F0F0F0F0F0F0E7
:1036E300F0F0F0F0070707070700000000000000F4
:1036F300000000E0F0F0F0000000000060E0E0C037
:10370300000000000000C0E0E0E0606060607070F6
:10371300303000E0E0E0E02060E0E0E040F0FEFF79
:10372300FFFFFFFFFFFFFF0000000000FFFFFFFFA1
:10373300FFFFFFFFFF1F1F1F1F1F1F1F1F1F1F1F36
:103743001F1F1F1F1F1F1F1FFFFFFFFFFEFEFEFE8A
:10375300FE0000000606060606C6FEFFFF1F07065C
:1037630006FEFEFE06060686C66606000000FFFF8E
:10377300FFFF3030F0F0F0F0303000FFFFFFFF408C
:1037830078FFFFFF80FFFFFFFFFFFFFFFFFFFF004B
:1037930000000000FFFFFFFFFFFFFFFFFF0000002F
:1037A3000000000000000000000000000000000016
:1037B300FFFFFFFFFFFFFFFFFF0000000000C0F05F
:1037C300FEFF3F0780C0C06070FFFFFF0E070301CD
:1037D300000000000000FFFFFFFF0000FFFFFFFFEE
:1037E300000000FFFFFFFF0000FFFFFFFFFFFFFFE1
:1037F300FFFFFFFFFFFFFF0000000000FFFFFFFFD1
:10380300FFFFFFFFFF0000000000000000000000BA
:103813000000000000000080FFFFFFFFFFFFFFFF2D
:10382300FF000000040F0F07030000030101000065
:1038330000070F0F0E0C0C0C0C0C0C0000040707F8
:103843000707060203030303030300070F0F07031E
:103853000303030100FFFFFFFFFFFFFFFFFFFF0065
:1038630000000000FFFFFFFFFFFFFFFFFFFFFFFF61
:10387300FFFFFFFFFFFFFFFFFFFFFFFFFFFFFFFF55
:10388300FFFFFFFFFFFFFFFFFF000000424242FE7A
:10389300FEFFE743434100061E3E3C3000FFFFFFAF
:1038A300FF000000004040FFFFFFFF400008080842
:1038B300080808FFFFFFFF0808080808087FFFFF44
:1038C300FFFFFFFFFFFFFFC0C0C0C0C0C1C1C1C138
:1038D300C1C1C1C1C1C1C1C1C1C1C1C1C1C1C1C1D5
:1038E300C1C1010101010101FFFFFFFFFFFFFFFF55
:1038F300FF000000FFFF00FFFFFF00FEFF000003CB
:103903000F1F1E1800FFFFFFFF808000008080FF55
:10391300FFFFFF400000021A7AFAF2E38383C3F247
:10392300FE7E3E0E0000070F1F3F3F7F7F7F7F7F9E
:103933007F7F7F7F7F7F7F7F7F7F7F7F7F7F7F7F94
:103943007F7F7F7F7F7F7F7F7F7F0000000000007E
:103953007F7F7F3F3F1F0F07000000007F7F007FB7
:103963007F7F003F7F00000301010101017F7F7F13
:103973007F0000000040607F7F7F3F0000004060C9
:1039830070787D3F1F1F3F7F78706040000001010A
:10399300000001000101000101000101000201001A
:1039A300010100660100040101AC000000000002F7
:1039B30001011C0000000201011E000000020101C0
:1039C300210000000401018E3E8F5C2900040101E7
:1039D3009442A00000000401019843200000000469
:1039E30001019C3D4CCCCD00040101A041400000ED
:1039F30000040101A43DA3D70A00040100D4000080
:103A0300000000020100D8000000020100DA0000FB
:103A130000020100DC000000020100DE00000002E1
:103A23000100E0000000020100E2000000020100CA
:103A3300E4000000020100E6000000020100E800CB
:103A43000000020100EA000000020100EC00000097
:103A5300020100EE000000020100F000000002017C
:103A630000F2000000020100F4000000040100F66F
:103A73000000000000020100FA000000020100FC47
:103A8300000000020100FE0000000201010000002E
:103A93000002010102000000040101040000000013
:103AA30000020101080000000201010A00000002F7
:103AB30001010C0000000201010E000000020101DF
:103AC30010000000020101120000000201011400B5
:103AD30000000201011600000002010118000000AD
:103AE3000201011A000000004B45593026312632ED
:103AF30021004B4559312632212020004B455930B6
:103B03002632212020004B45593026312120200028
:103B13004B4559322120202020004B45593121208B
:103B2300202020004B4559302120202020004B45E8
:103B33005920507265737365643A2020004C6F6E90
:103B4300672051697520692E732E742E00B1B1BEA2
:103B5300A9C1FAC7F1D6C7C4DCBFC6BCBC00503389
:103B6300323A25303264205033333A253032640000
:103B73004C593A25303464204A463A25303464009F
:103B83004D3A25303464204D743A25303464004571
:103B93003A253034642025303464005A4A3A2530BB
:103BA300346420543A25303464004C503A25303480
:103BB300642052503A25303464004C563A25303450
:103BC300642052563A253034640049443A3078250B
:103BD30030325800677A3A253036640067793A25DF
:103BE3003036640067783A2530366400617A3A25C6
:103BF3003036640061793A253036640061783A25BD
:103C0300303664004C5132303638394D20466169C4
:103C13006C004C5132303638394D20546573740082
:103C23004144333A2530356420004144323A25304B
:103C3300356420004144313A253035642000414445
:103C4300303A2530356420004C6F6E67205169751A
:103C530020692E732E742E00B1B1BEA9C1FAC7F12B
:103C6300D6C7C4DCBFC6BCBC00536572766F3A25A9
:103C730030356420004C5120536572766F205465B3
:103C830073740050574D3A20253035643B004C5136
:103C9300204D6F746F72205465737400583A00009E
:103CA300000000000000000000000000456E6332C9
:103CB3003A202530346420200050574D3A202530D7
:103CC30035643B00456E63313A202530346420204F
:103CD30000B1B1BEA9C1FAC7F1D6C7C4DCBFC6BC27
:023CE300BC0023
:00000001FF
